:100000000C9434000C943E000C943E000C943E0082
:100010000C943E000C943E000C943E000C943E0068
:100020000C943E000C943E000C943E000C943E0058
:100030000C943E000C943E000C943E000C943E0048
:100040000C943E000C943E000C943E000C943E0038
:100050000C943E000C943E000C943E000C943E0028
:100060000C943E000C943E0011241FBECFEFD8E04C
:10007000DEBFCDBF0E9440000C94A8000C9400008D
:100080001092B90088E48093B80084E08093BC00AB
:1000900024EA30E384E844E251E364EC2093BC00BA
:1000A0009091BC0097FFFCCF9091B900987F983059
:1000B000A9F73093BB008093BC009091BC0097FFE0
:1000C000FCCF9091B900987F983141F74093BB00E5
:1000D0008093BC009091BC0097FFFCCF9091B90039
:1000E000987F9832D9F62093BC009091BC0097FF7E
:1000F000FCCF9091B900987F903181F65093BB006E
:100100008093BC009091BC0097FFFCCF9091B90008
:10011000987F903419F66093BC009091BC0097FFD3
:10012000FCCF9091B900987F903509F0B7CF9091AE
:10013000BB008093BC009091BC0097FFFCCF9091D6
:10014000B900987F983509F0A9CF9091BB00A6CF50
:04015000F894FFCF51
:00000001FF
