:100000000C9434000C943E000C943E000C943E0082
:100010000C943E000C943E000C943E000C943E0068
:100020000C943E000C943E000C943E000C943E0058
:100030000C943E000C943E000C943E000C943E0048
:100040000C943E000C943E000C943E000C943E0038
:100050000C943E000C943E000C943E000C943E0028
:100060000C943E000C943E0011241FBECFEFD8E04C
:10007000DEBFCDBF0E9440000C94A7000C9400008E
:1000800080E480937C0087E690E09093C5008093A5
:10009000C40088E08093C10086E08093C20080E3C2
:1000A0008093BA0084E48093BC0084EC27E89091AC
:1000B000BC0097FFFCCF9091B900987F903611F467
:1000C0008093BC009091BC0097FFFCCF9091B90049
:1000D000987F903861F79091BB008093BC00943278
:1000E00031F720937A0090917A00906490937A008F
:1000F00090917A0096FDFCCF409178003091790084
:100100009091BC0097FFFCCF9091B900987F983AEE
:1001100071F64093BB008093BC009091BC0097FFA8
:10012000FCCF9091B900987F983B21F43093BB00AD
:100130008093BC009091BC0097FFFCCF9091B900D8
:10014000987F903C09F0B3CF8093BC00B0CFF89477
:02015000FFCFDF
:00000001FF
