:100000000C9434000C943E000C943E000C943E0082
:100010000C943E000C943E000C943E000C943E0068
:100020000C943E000C943E000C943E000C943E0058
:100030000C943E000C943E000C943E000C943E0048
:100040000C943E000C943E000C943E000C943E0038
:100050000C943E000C943E000C943E000C943E0028
:100060000C943E000C943E0011241FBECFEFD8E04C
:10007000DEBFCDBF0E9483000C94B9000C94000039
:100080000F931F93CF93DF9300D000D01F92CDB773
:10009000DEB7009781F1E0E00AE010E021E02E0FEA
:1000A00041E050E04C0F5D1F4E0F511DFA01B801A9
:1000B0000E94A500805D8083CB01E22F009771F73D
:1000C00021110AC00F900F900F900F900F90DF91A9
:1000D000CF911F910F9108958091C00085FFFCCFB3
:1000E0002150E1E0F0E0EC0FFD1FE20FF11D8081F7
:1000F0008093C600E5CF8091C00085FFFCCF80E3F0
:100100008093C600DFCF80E480937C0087E690E098
:100110009093C5008093C40088E08093C10086E07E
:100120008093C200C7E8C0937A0080917A0080640F
:1001300080937A0080917A0086FDFCCF80917800D0
:10014000909179000E944000EECFAA1BBB1B51E1A9
:1001500007C0AA1FBB1FA617B70710F0A61BB70B37
:10016000881F991F5A95A9F780959095BC01CD01DC
:060170000895F894FFCF92
:00000001FF
